{
  "contractName": "Blog",
  "abi": [
    {
      "anonymous": false,
      "inputs": [
        {
          "indexed": false,
          "internalType": "uint256",
          "name": "id",
          "type": "uint256"
        }
      ],
      "name": "PostPublished",
      "type": "event"
    },
    {
      "anonymous": false,
      "inputs": [
        {
          "indexed": false,
          "internalType": "uint256",
          "name": "id",
          "type": "uint256"
        }
      ],
      "name": "PostUpdated",
      "type": "event"
    },
    {
      "inputs": [],
      "name": "owner",
      "outputs": [
        {
          "internalType": "address",
          "name": "",
          "type": "address"
        }
      ],
      "stateMutability": "view",
      "type": "function",
      "constant": true
    },
    {
      "inputs": [],
      "name": "postCount",
      "outputs": [
        {
          "internalType": "uint256",
          "name": "",
          "type": "uint256"
        }
      ],
      "stateMutability": "view",
      "type": "function",
      "constant": true
    },
    {
      "inputs": [
        {
          "internalType": "uint256",
          "name": "",
          "type": "uint256"
        }
      ],
      "name": "posts",
      "outputs": [
        {
          "internalType": "uint256",
          "name": "id",
          "type": "uint256"
        },
        {
          "internalType": "address",
          "name": "autherAddress",
          "type": "address"
        },
        {
          "internalType": "string",
          "name": "title",
          "type": "string"
        },
        {
          "internalType": "string",
          "name": "attachmentHash",
          "type": "string"
        },
        {
          "internalType": "string",
          "name": "content",
          "type": "string"
        },
        {
          "internalType": "uint256",
          "name": "upvotes",
          "type": "uint256"
        },
        {
          "internalType": "uint256",
          "name": "downvotes",
          "type": "uint256"
        }
      ],
      "stateMutability": "view",
      "type": "function",
      "constant": true
    },
    {
      "inputs": [
        {
          "components": [
            {
              "internalType": "string",
              "name": "title",
              "type": "string"
            },
            {
              "internalType": "string",
              "name": "attachmentHash",
              "type": "string"
            },
            {
              "internalType": "string",
              "name": "content",
              "type": "string"
            }
          ],
          "internalType": "struct Blog.Post",
          "name": "_data",
          "type": "tuple"
        }
      ],
      "name": "createPost",
      "outputs": [],
      "stateMutability": "nonpayable",
      "type": "function"
    },
    {
      "inputs": [
        {
          "internalType": "uint256",
          "name": "_postId",
          "type": "uint256"
        },
        {
          "internalType": "string",
          "name": "_type",
          "type": "string"
        }
      ],
      "name": "votePost",
      "outputs": [],
      "stateMutability": "nonpayable",
      "type": "function"
    }
  ],
  "bytecode": "0x6080604052336000806101000a81548173ffffffffffffffffffffffffffffffffffffffff021916908373ffffffffffffffffffffffffffffffffffffffff160217905550600060015534801561005557600080fd5b50610f69806100656000396000f3fe608060405234801561001057600080fd5b50600436106100575760003560e01c80630b1e7f831461005c57806317906c2e1461009257806321b12190146100b0578063681a1edf146100cc5780638da5cb5b146100e8575b600080fd5b61007660048036038101906100719190610998565b610106565b6040516100899796959493929190610aae565b60405180910390f35b61009a610300565b6040516100a79190610b32565b60405180910390f35b6100ca60048036038101906100c59190610d44565b610306565b005b6100e660048036038101906100e19190610d8d565b6104a7565b005b6100f0610887565b6040516100fd9190610de9565b60405180910390f35b60026020528060005260406000206000915090508060000154908060010160009054906101000a900473ffffffffffffffffffffffffffffffffffffffff169080600201805461015590610e33565b80601f016020809104026020016040519081016040528092919081815260200182805461018190610e33565b80156101ce5780601f106101a3576101008083540402835291602001916101ce565b820191906000526020600020905b8154815290600101906020018083116101b157829003601f168201915b5050505050908060030180546101e390610e33565b80601f016020809104026020016040519081016040528092919081815260200182805461020f90610e33565b801561025c5780601f106102315761010080835404028352916020019161025c565b820191906000526020600020905b81548152906001019060200180831161023f57829003601f168201915b50505050509080600401805461027190610e33565b80601f016020809104026020016040519081016040528092919081815260200182805461029d90610e33565b80156102ea5780601f106102bf576101008083540402835291602001916102ea565b820191906000526020600020905b8154815290600101906020018083116102cd57829003601f168201915b5050505050908060050154908060060154905087565b60015481565b6001600081548092919061031990610e94565b91905055506040518060e00160405280600154815260200160008054906101000a900473ffffffffffffffffffffffffffffffffffffffff1673ffffffffffffffffffffffffffffffffffffffff1681526020018260000151815260200182602001518152602001826040015181526020016000815260200160008152506002600060015481526020019081526020016000206000820151816000015560208201518160010160006101000a81548173ffffffffffffffffffffffffffffffffffffffff021916908373ffffffffffffffffffffffffffffffffffffffff16021790555060408201518160020190805190602001906104199291906108ab565b5060608201518160030190805190602001906104369291906108ab565b5060808201518160040190805190602001906104539291906108ab565b5060a0820151816005015560c082015181600601559050507f94d5f22d099abbac7cd18ba6c6f535e3ced6d77090647df37508dd93dda7d65a60015460405161049c9190610b32565b60405180910390a150565b6000600260008481526020019081526020016000206040518060e0016040529081600082015481526020016001820160009054906101000a900473ffffffffffffffffffffffffffffffffffffffff1673ffffffffffffffffffffffffffffffffffffffff1673ffffffffffffffffffffffffffffffffffffffff16815260200160028201805461053790610e33565b80601f016020809104026020016040519081016040528092919081815260200182805461056390610e33565b80156105b05780601f10610585576101008083540402835291602001916105b0565b820191906000526020600020905b81548152906001019060200180831161059357829003601f168201915b505050505081526020016003820180546105c990610e33565b80601f01602080910402602001604051908101604052809291908181526020018280546105f590610e33565b80156106425780601f1061061757610100808354040283529160200191610642565b820191906000526020600020905b81548152906001019060200180831161062557829003601f168201915b5050505050815260200160048201805461065b90610e33565b80601f016020809104026020016040519081016040528092919081815260200182805461068790610e33565b80156106d45780601f106106a9576101008083540402835291602001916106d4565b820191906000526020600020905b8154815290600101906020018083116106b757829003601f168201915b505050505081526020016005820154815260200160068201548152505090506040518060400160405280600281526020017f7570000000000000000000000000000000000000000000000000000000000000815250805190602001208280519060200120141561075d5760018160a0015161074f9190610edd565b8160a0018181525050610778565b60018160c0015161076e9190610edd565b8160c00181815250505b80600260008581526020019081526020016000206000820151816000015560208201518160010160006101000a81548173ffffffffffffffffffffffffffffffffffffffff021916908373ffffffffffffffffffffffffffffffffffffffff16021790555060408201518160020190805190602001906107f99291906108ab565b5060608201518160030190805190602001906108169291906108ab565b5060808201518160040190805190602001906108339291906108ab565b5060a0820151816005015560c082015181600601559050507f2d092d8220c21e9f2d397a27cfc890719068e1dfc64d5bfde92b3d061c69d8298360405161087a9190610b32565b60405180910390a1505050565b60008054906101000a900473ffffffffffffffffffffffffffffffffffffffff1681565b8280546108b790610e33565b90600052602060002090601f0160209004810192826108d95760008555610920565b82601f106108f257805160ff1916838001178555610920565b82800160010185558215610920579182015b8281111561091f578251825591602001919060010190610904565b5b50905061092d9190610931565b5090565b5b8082111561094a576000816000905550600101610932565b5090565b6000604051905090565b600080fd5b600080fd5b6000819050919050565b61097581610962565b811461098057600080fd5b50565b6000813590506109928161096c565b92915050565b6000602082840312156109ae576109ad610958565b5b60006109bc84828501610983565b91505092915050565b6109ce81610962565b82525050565b600073ffffffffffffffffffffffffffffffffffffffff82169050919050565b60006109ff826109d4565b9050919050565b610a0f816109f4565b82525050565b600081519050919050565b600082825260208201905092915050565b60005b83811015610a4f578082015181840152602081019050610a34565b83811115610a5e576000848401525b50505050565b6000601f19601f8301169050919050565b6000610a8082610a15565b610a8a8185610a20565b9350610a9a818560208601610a31565b610aa381610a64565b840191505092915050565b600060e082019050610ac3600083018a6109c5565b610ad06020830189610a06565b8181036040830152610ae28188610a75565b90508181036060830152610af68187610a75565b90508181036080830152610b0a8186610a75565b9050610b1960a08301856109c5565b610b2660c08301846109c5565b98975050505050505050565b6000602082019050610b4760008301846109c5565b92915050565b600080fd5b7f4e487b7100000000000000000000000000000000000000000000000000000000600052604160045260246000fd5b610b8a82610a64565b810181811067ffffffffffffffff82111715610ba957610ba8610b52565b5b80604052505050565b6000610bbc61094e565b9050610bc88282610b81565b919050565b600080fd5b600080fd5b600080fd5b600067ffffffffffffffff821115610bf757610bf6610b52565b5b610c0082610a64565b9050602081019050919050565b82818337600083830152505050565b6000610c2f610c2a84610bdc565b610bb2565b905082815260208101848484011115610c4b57610c4a610bd7565b5b610c56848285610c0d565b509392505050565b600082601f830112610c7357610c72610bd2565b5b8135610c83848260208601610c1c565b91505092915050565b600060608284031215610ca257610ca1610b4d565b5b610cac6060610bb2565b9050600082013567ffffffffffffffff811115610ccc57610ccb610bcd565b5b610cd884828501610c5e565b600083015250602082013567ffffffffffffffff811115610cfc57610cfb610bcd565b5b610d0884828501610c5e565b602083015250604082013567ffffffffffffffff811115610d2c57610d2b610bcd565b5b610d3884828501610c5e565b60408301525092915050565b600060208284031215610d5a57610d59610958565b5b600082013567ffffffffffffffff811115610d7857610d7761095d565b5b610d8484828501610c8c565b91505092915050565b60008060408385031215610da457610da3610958565b5b6000610db285828601610983565b925050602083013567ffffffffffffffff811115610dd357610dd261095d565b5b610ddf85828601610c5e565b9150509250929050565b6000602082019050610dfe6000830184610a06565b92915050565b7f4e487b7100000000000000000000000000000000000000000000000000000000600052602260045260246000fd5b60006002820490506001821680610e4b57607f821691505b60208210811415610e5f57610e5e610e04565b5b50919050565b7f4e487b7100000000000000000000000000000000000000000000000000000000600052601160045260246000fd5b6000610e9f82610962565b91507fffffffffffffffffffffffffffffffffffffffffffffffffffffffffffffffff821415610ed257610ed1610e65565b5b600182019050919050565b6000610ee882610962565b9150610ef383610962565b9250827fffffffffffffffffffffffffffffffffffffffffffffffffffffffffffffffff03821115610f2857610f27610e65565b5b82820190509291505056fea2646970667358221220a6b02e6e247e9ff4c8dd596548564aeed658c8e04fae049c5c5eae4a599797b864736f6c634300080b0033",
  "immutableReferences": {},
  "source": "// SPDX-License-Identifier: MIT\npragma solidity >=0.4.22 <0.9.0;\n\ncontract Blog {\n    address public owner = msg.sender;\n    uint256 public postCount = 0;\n    mapping(uint256 => BlogPost) public posts;\n\n    struct BlogPost {\n        uint256 id;\n        address autherAddress;\n        string title;\n        string attachmentHash;\n        string content;\n        uint256 upvotes;\n        uint256 downvotes;\n    }\n\n    struct Post {\n        string title;\n        string attachmentHash;\n        string content;\n    }\n\n    event PostPublished(uint256 id);\n    event PostUpdated(uint256 id);\n\n    function createPost(Post memory _data) public {\n        postCount++;\n        posts[postCount] = BlogPost(\n            postCount,\n            owner,\n            _data.title,\n            _data.attachmentHash,\n            _data.content,\n            0,\n            0\n        );\n        emit PostPublished(postCount);\n    }\n\n    function votePost(uint256 _postId, string memory _type) public {\n        BlogPost memory _blog = posts[_postId];\n        if (keccak256(bytes(_type)) == keccak256(bytes(\"up\"))) {\n            _blog.upvotes = _blog.upvotes + 1;\n        } else {\n            _blog.downvotes = _blog.downvotes + 1;\n        }\n        posts[_postId] = _blog;\n        emit PostUpdated(_postId);\n    }\n}\n",
  "sourcePath": "/Users/apple/Projects/WEB3/blockchain-blogs/src/contracts/Blog.sol",
  "compiler": {
    "name": "solc",
    "version": "0.8.11+commit.d7f03943.Emscripten.clang"
  },
  "schemaVersion": "3.4.4",
  "updatedAt": "2022-03-23T11:33:20.925Z",
  "networkType": "ethereum",
  "devdoc": {
    "kind": "dev",
    "methods": {},
    "version": 1
  },
  "userdoc": {
    "kind": "user",
    "methods": {},
    "version": 1
  }
}